{
  "contractName": "Voting_Admin",
  "abi": [
    {
      "inputs": [],
      "stateMutability": "nonpayable",
      "type": "constructor"
    },
    {
      "inputs": [],
      "name": "admin",
      "outputs": [
        {
          "internalType": "address",
          "name": "",
          "type": "address"
        }
      ],
      "stateMutability": "view",
      "type": "function"
    },
    {
      "inputs": [
        {
          "internalType": "uint256",
          "name": "",
          "type": "uint256"
        }
      ],
      "name": "candidates",
      "outputs": [
        {
          "internalType": "address",
          "name": "candidateAddress",
          "type": "address"
        },
        {
          "internalType": "uint256",
          "name": "voteCount",
          "type": "uint256"
        }
      ],
      "stateMutability": "view",
      "type": "function"
    },
    {
      "inputs": [
        {
          "internalType": "address",
          "name": "",
          "type": "address"
        }
      ],
      "name": "hasVoted",
      "outputs": [
        {
          "internalType": "bool",
          "name": "",
          "type": "bool"
        }
      ],
      "stateMutability": "view",
      "type": "function"
    },
    {
      "inputs": [
        {
          "internalType": "address",
          "name": "",
          "type": "address"
        }
      ],
      "name": "registeredVoters",
      "outputs": [
        {
          "internalType": "bool",
          "name": "",
          "type": "bool"
        }
      ],
      "stateMutability": "view",
      "type": "function"
    },
    {
      "inputs": [
        {
          "internalType": "uint256",
          "name": "",
          "type": "uint256"
        }
      ],
      "name": "voterList",
      "outputs": [
        {
          "internalType": "address",
          "name": "",
          "type": "address"
        }
      ],
      "stateMutability": "view",
      "type": "function"
    },
    {
      "inputs": [
        {
          "internalType": "address",
          "name": "_candidate",
          "type": "address"
        }
      ],
      "name": "addCandidate",
      "outputs": [],
      "stateMutability": "nonpayable",
      "type": "function"
    },
    {
      "inputs": [
        {
          "internalType": "address",
          "name": "_voter",
          "type": "address"
        }
      ],
      "name": "registerVoter",
      "outputs": [],
      "stateMutability": "nonpayable",
      "type": "function"
    },
    {
      "inputs": [
        {
          "internalType": "address",
          "name": "_candidate",
          "type": "address"
        }
      ],
      "name": "vote",
      "outputs": [],
      "stateMutability": "nonpayable",
      "type": "function"
    },
    {
      "inputs": [
        {
          "internalType": "uint256",
          "name": "index",
          "type": "uint256"
        }
      ],
      "name": "getVoter",
      "outputs": [
        {
          "internalType": "address",
          "name": "",
          "type": "address"
        }
      ],
      "stateMutability": "view",
      "type": "function"
    },
    {
      "inputs": [],
      "name": "getTotalVoters",
      "outputs": [
        {
          "internalType": "uint256",
          "name": "",
          "type": "uint256"
        }
      ],
      "stateMutability": "view",
      "type": "function"
    },
    {
      "inputs": [
        {
          "internalType": "uint256",
          "name": "index",
          "type": "uint256"
        }
      ],
      "name": "getCandidate",
      "outputs": [
        {
          "internalType": "address",
          "name": "",
          "type": "address"
        },
        {
          "internalType": "uint256",
          "name": "",
          "type": "uint256"
        }
      ],
      "stateMutability": "view",
      "type": "function"
    }
  ],
  "bytecode": "0x608060405234801561001057600080fd5b5033600560006101000a81548173ffffffffffffffffffffffffffffffffffffffff021916908373ffffffffffffffffffffffffffffffffffffffff1602179055506111a3806100616000396000f3fe608060405234801561001057600080fd5b50600436106100a95760003560e01c806350e2e8af1161007157806350e2e8af146101785780636dd7d8ea146101a8578063793cf218146101c4578063a9ff6df1146101e2578063d07bff0c14610212578063f851a44014610242576100a9565b806309eef43e146100ae5780633477ee2e146100de57806335b8e8201461010f57806338db6dd3146101405780633acd75f81461015c575b600080fd5b6100c860048036038101906100c39190610bed565b610260565b6040516100d59190610c35565b60405180910390f35b6100f860048036038101906100f39190610c86565b610280565b604051610106929190610cd1565b60405180910390f35b61012960048036038101906101249190610c86565b6102d4565b604051610137929190610cd1565b60405180910390f35b61015a60048036038101906101559190610bed565b610393565b005b61017660048036038101906101719190610bed565b61056e565b005b610192600480360381019061018d9190610c86565b61078e565b60405161019f9190610cfa565b60405180910390f35b6101c260048036038101906101bd9190610bed565b6107cd565b005b6101cc610aa8565b6040516101d99190610d15565b60405180910390f35b6101fc60048036038101906101f79190610bed565b610ab5565b6040516102099190610c35565b60405180910390f35b61022c60048036038101906102279190610c86565b610ad5565b6040516102399190610cfa565b60405180910390f35b61024a610b64565b6040516102579190610cfa565b60405180910390f35b60036020528060005260406000206000915054906101000a900460ff1681565b6001818154811061029057600080fd5b90600052602060002090600202016000915090508060000160009054906101000a900473ffffffffffffffffffffffffffffffffffffffff16908060010154905082565b600080600180549050831061031e576040517f08c379a000000000000000000000000000000000000000000000000000000000815260040161031590610d8d565b60405180910390fd5b6001838154811061033257610331610dad565b5b906000526020600020906002020160000160009054906101000a900473ffffffffffffffffffffffffffffffffffffffff166001848154811061037857610377610dad565b5b90600052602060002090600202016001015491509150915091565b600560009054906101000a900473ffffffffffffffffffffffffffffffffffffffff1673ffffffffffffffffffffffffffffffffffffffff163373ffffffffffffffffffffffffffffffffffffffff1614610423576040517f08c379a000000000000000000000000000000000000000000000000000000000815260040161041a90610e4e565b60405180910390fd5b600260008273ffffffffffffffffffffffffffffffffffffffff1673ffffffffffffffffffffffffffffffffffffffff16815260200190815260200160002060009054906101000a900460ff16156104b0576040517f08c379a00000000000000000000000000000000000000000000000000000000081526004016104a790610eba565b60405180910390fd5b6001600260008373ffffffffffffffffffffffffffffffffffffffff1673ffffffffffffffffffffffffffffffffffffffff16815260200190815260200160002060006101000a81548160ff0219169083151502179055506004819080600181540180825580915050600190039060005260206000200160009091909190916101000a81548173ffffffffffffffffffffffffffffffffffffffff021916908373ffffffffffffffffffffffffffffffffffffffff16021790555050565b600560009054906101000a900473ffffffffffffffffffffffffffffffffffffffff1673ffffffffffffffffffffffffffffffffffffffff163373ffffffffffffffffffffffffffffffffffffffff16146105fe576040517f08c379a00000000000000000000000000000000000000000000000000000000081526004016105f590610e4e565b60405180910390fd5b6000808273ffffffffffffffffffffffffffffffffffffffff1673ffffffffffffffffffffffffffffffffffffffff16815260200190815260200160002060009054906101000a900460ff161561068a576040517f08c379a000000000000000000000000000000000000000000000000000000000815260040161068190610f26565b60405180910390fd5b600160405180604001604052808373ffffffffffffffffffffffffffffffffffffffff1681526020016000815250908060018154018082558091505060019003906000526020600020906002020160009091909190915060008201518160000160006101000a81548173ffffffffffffffffffffffffffffffffffffffff021916908373ffffffffffffffffffffffffffffffffffffffff16021790555060208201518160010155505060016000808373ffffffffffffffffffffffffffffffffffffffff1673ffffffffffffffffffffffffffffffffffffffff16815260200190815260200160002060006101000a81548160ff02191690831515021790555050565b6004818154811061079e57600080fd5b906000526020600020016000915054906101000a900473ffffffffffffffffffffffffffffffffffffffff1681565b600260003373ffffffffffffffffffffffffffffffffffffffff1673ffffffffffffffffffffffffffffffffffffffff16815260200190815260200160002060009054906101000a900460ff16610859576040517f08c379a000000000000000000000000000000000000000000000000000000000815260040161085090610f92565b60405180910390fd5b600360003373ffffffffffffffffffffffffffffffffffffffff1673ffffffffffffffffffffffffffffffffffffffff16815260200190815260200160002060009054906101000a900460ff16156108e6576040517f08c379a00000000000000000000000000000000000000000000000000000000081526004016108dd90610ffe565b60405180910390fd5b6000808273ffffffffffffffffffffffffffffffffffffffff1673ffffffffffffffffffffffffffffffffffffffff16815260200190815260200160002060009054906101000a900460ff16610971576040517f08c379a00000000000000000000000000000000000000000000000000000000081526004016109689061106a565b60405180910390fd5b60005b600180549050811015610aa4578173ffffffffffffffffffffffffffffffffffffffff16600182815481106109ac576109ab610dad565b5b906000526020600020906002020160000160009054906101000a900473ffffffffffffffffffffffffffffffffffffffff1673ffffffffffffffffffffffffffffffffffffffff1603610a915760018181548110610a0d57610a0c610dad565b5b90600052602060002090600202016001016000815480929190610a2f906110b9565b91905055506001600360003373ffffffffffffffffffffffffffffffffffffffff1673ffffffffffffffffffffffffffffffffffffffff16815260200190815260200160002060006101000a81548160ff021916908315150217905550610aa4565b8080610a9c906110b9565b915050610974565b5050565b6000600480549050905090565b60026020528060005260406000206000915054906101000a900460ff1681565b60006004805490508210610b1e576040517f08c379a0000000000000000000000000000000000000000000000000000000008152600401610b159061114d565b60405180910390fd5b60048281548110610b3257610b31610dad565b5b9060005260206000200160009054906101000a900473ffffffffffffffffffffffffffffffffffffffff169050919050565b600560009054906101000a900473ffffffffffffffffffffffffffffffffffffffff1681565b600080fd5b600073ffffffffffffffffffffffffffffffffffffffff82169050919050565b6000610bba82610b8f565b9050919050565b610bca81610baf565b8114610bd557600080fd5b50565b600081359050610be781610bc1565b92915050565b600060208284031215610c0357610c02610b8a565b5b6000610c1184828501610bd8565b91505092915050565b60008115159050919050565b610c2f81610c1a565b82525050565b6000602082019050610c4a6000830184610c26565b92915050565b6000819050919050565b610c6381610c50565b8114610c6e57600080fd5b50565b600081359050610c8081610c5a565b92915050565b600060208284031215610c9c57610c9b610b8a565b5b6000610caa84828501610c71565b91505092915050565b610cbc81610baf565b82525050565b610ccb81610c50565b82525050565b6000604082019050610ce66000830185610cb3565b610cf36020830184610cc2565b9392505050565b6000602082019050610d0f6000830184610cb3565b92915050565b6000602082019050610d2a6000830184610cc2565b92915050565b600082825260208201905092915050565b7f43616e64696461746520696e646578206f7574206f6620626f756e64732e0000600082015250565b6000610d77601e83610d30565b9150610d8282610d41565b602082019050919050565b60006020820190508181036000830152610da681610d6a565b9050919050565b7f4e487b7100000000000000000000000000000000000000000000000000000000600052603260045260246000fd5b7f4f6e6c792061646d696e2063616e20706572666f726d2074686973206163746960008201527f6f6e000000000000000000000000000000000000000000000000000000000000602082015250565b6000610e38602283610d30565b9150610e4382610ddc565b604082019050919050565b60006020820190508181036000830152610e6781610e2b565b9050919050565b7f566f74657220616c726561647920726567697374657265642e00000000000000600082015250565b6000610ea4601983610d30565b9150610eaf82610e6e565b602082019050919050565b60006020820190508181036000830152610ed381610e97565b9050919050565b7f43616e64696461746520616c7265616479206578697374732e00000000000000600082015250565b6000610f10601983610d30565b9150610f1b82610eda565b602082019050919050565b60006020820190508181036000830152610f3f81610f03565b9050919050565b7f596f7520617265206e6f742061207265676973746572656420766f7465722e00600082015250565b6000610f7c601f83610d30565b9150610f8782610f46565b602082019050919050565b60006020820190508181036000830152610fab81610f6f565b9050919050565b7f596f75206861766520616c726561647920766f7465642e000000000000000000600082015250565b6000610fe8601783610d30565b9150610ff382610fb2565b602082019050919050565b6000602082019050818103600083015261101781610fdb565b9050919050565b7f43616e64696461746520646f6573206e6f742065786973742e00000000000000600082015250565b6000611054601983610d30565b915061105f8261101e565b602082019050919050565b6000602082019050818103600083015261108381611047565b9050919050565b7f4e487b7100000000000000000000000000000000000000000000000000000000600052601160045260246000fd5b60006110c482610c50565b91507fffffffffffffffffffffffffffffffffffffffffffffffffffffffffffffffff82036110f6576110f561108a565b5b600182019050919050565b7f496e646578206f7574206f6620626f756e64732e000000000000000000000000600082015250565b6000611137601483610d30565b915061114282611101565b602082019050919050565b600060208201905081810360008301526111668161112a565b905091905056fea26469706673582212206d955aa487d20656a6e14c68e975b70eef93dbb29bdf99191aee885a0cd81a7364736f6c63430008130033",
  "immutableReferences": {},
  "source": "// SPDX-License-Identifier: MIT\r\npragma solidity ^0.8.19;\r\n\r\ncontract Voting_Admin {\r\n    struct Candidate {\r\n        address candidateAddress;\r\n        uint voteCount;\r\n    }\r\n\r\n    mapping(address => bool) private candidateExists;\r\n    Candidate[] public candidates;\r\n    \r\n    mapping(address => bool) public registeredVoters;  // Admin-controlled voter registration\r\n    mapping(address => bool) public hasVoted;  // Track who has voted\r\n    address[] public voterList;\r\n    \r\n    address public admin;  // Admin address\r\n\r\n    constructor() {\r\n        admin = msg.sender;  // Set deployer as the admin\r\n    }\r\n\r\n    modifier onlyAdmin() {\r\n        require(msg.sender == admin, \"Only admin can perform this action\");\r\n        _;\r\n    }\r\n\r\n    function addCandidate(address _candidate) public onlyAdmin {\r\n        require(!candidateExists[_candidate], \"Candidate already exists.\");\r\n        candidates.push(Candidate(_candidate, 0));\r\n        candidateExists[_candidate] = true;\r\n    }\r\n\r\n    function registerVoter(address _voter) public onlyAdmin {\r\n        require(!registeredVoters[_voter], \"Voter already registered.\");\r\n        registeredVoters[_voter] = true;\r\n        voterList.push(_voter);\r\n    }\r\n\r\n    function vote(address _candidate) public {\r\n        require(registeredVoters[msg.sender], \"You are not a registered voter.\");\r\n        require(!hasVoted[msg.sender], \"You have already voted.\");\r\n        require(candidateExists[_candidate], \"Candidate does not exist.\");\r\n\r\n        for (uint i = 0; i < candidates.length; i++) {\r\n            if (candidates[i].candidateAddress == _candidate) {\r\n                candidates[i].voteCount++;\r\n                hasVoted[msg.sender] = true;\r\n                break;\r\n            }\r\n        }\r\n    }\r\n\r\n    function getVoter(uint index) public view returns (address) {\r\n        require(index < voterList.length, \"Index out of bounds.\");\r\n        return voterList[index];\r\n    }\r\n\r\n    function getTotalVoters() public view returns (uint) {\r\n        return voterList.length;\r\n    }\r\n\r\n    function getCandidate(uint index) public view returns (address, uint) {\r\n        require(index < candidates.length, \"Candidate index out of bounds.\");\r\n        return (candidates[index].candidateAddress, candidates[index].voteCount);\r\n    }\r\n}\r\n",
  "sourcePath": "C:\\Users\\KIM\\Desktop\\Project\\Dapp-Voting-system\\contracts\\voting.sol",
  "compiler": {
    "name": "solc",
    "version": "0.8.19+commit.7dd6d404.Emscripten.clang"
  },
  "schemaVersion": "3.4.16",
  "updatedAt": "2025-03-16T17:35:06.837Z",
  "devdoc": {
    "kind": "dev",
    "methods": {},
    "version": 1
  },
  "userdoc": {
    "kind": "user",
    "methods": {},
    "version": 1
  }
}