{
  "contractName": "Voting",
  "abi": [
    {
      "inputs": [
        {
          "internalType": "uint256",
          "name": "",
          "type": "uint256"
        }
      ],
      "name": "candidates",
      "outputs": [
        {
          "internalType": "string",
          "name": "name",
          "type": "string"
        },
        {
          "internalType": "uint256",
          "name": "voteCount",
          "type": "uint256"
        }
      ],
      "stateMutability": "view",
      "type": "function",
      "constant": true
    },
    {
      "inputs": [
        {
          "internalType": "address",
          "name": "",
          "type": "address"
        }
      ],
      "name": "hasVoted",
      "outputs": [
        {
          "internalType": "bool",
          "name": "",
          "type": "bool"
        }
      ],
      "stateMutability": "view",
      "type": "function",
      "constant": true
    },
    {
      "inputs": [
        {
          "internalType": "address",
          "name": "",
          "type": "address"
        }
      ],
      "name": "registeredVoters",
      "outputs": [
        {
          "internalType": "bool",
          "name": "",
          "type": "bool"
        }
      ],
      "stateMutability": "view",
      "type": "function",
      "constant": true
    },
    {
      "inputs": [
        {
          "internalType": "uint256",
          "name": "",
          "type": "uint256"
        }
      ],
      "name": "voters",
      "outputs": [
        {
          "internalType": "address",
          "name": "",
          "type": "address"
        }
      ],
      "stateMutability": "view",
      "type": "function",
      "constant": true
    },
    {
      "inputs": [
        {
          "internalType": "string",
          "name": "_name",
          "type": "string"
        }
      ],
      "name": "addCandidate",
      "outputs": [],
      "stateMutability": "nonpayable",
      "type": "function"
    },
    {
      "inputs": [
        {
          "internalType": "address",
          "name": "_voter",
          "type": "address"
        }
      ],
      "name": "registerVoter",
      "outputs": [],
      "stateMutability": "nonpayable",
      "type": "function"
    },
    {
      "inputs": [
        {
          "internalType": "string",
          "name": "_name",
          "type": "string"
        }
      ],
      "name": "vote",
      "outputs": [],
      "stateMutability": "nonpayable",
      "type": "function"
    },
    {
      "inputs": [
        {
          "internalType": "uint256",
          "name": "index",
          "type": "uint256"
        }
      ],
      "name": "getVoter",
      "outputs": [
        {
          "internalType": "address",
          "name": "",
          "type": "address"
        }
      ],
      "stateMutability": "view",
      "type": "function",
      "constant": true
    },
    {
      "inputs": [],
      "name": "getTotalVoters",
      "outputs": [
        {
          "internalType": "uint256",
          "name": "",
          "type": "uint256"
        }
      ],
      "stateMutability": "view",
      "type": "function",
      "constant": true
    }
  ],
  "bytecode": "0x608060405234801561001057600080fd5b506113c9806100206000396000f3fe608060405234801561001057600080fd5b50600436106100935760003560e01c8063793cf21811610066578063793cf21814610131578063a9ff6df11461014f578063d07bff0c1461017f578063da58c7d9146101af578063fc36e15b146101df57610093565b806309eef43e146100985780633477ee2e146100c857806338db6dd3146100f9578063462e91ec14610115575b600080fd5b6100b260048036038101906100ad9190610922565b6101fb565b6040516100bf919061096a565b60405180910390f35b6100e260048036038101906100dd91906109bb565b61021b565b6040516100f0929190610a87565b60405180910390f35b610113600480360381019061010e9190610922565b6102d7565b005b61012f600480360381019061012a9190610bec565b610422565b005b61013961052b565b6040516101469190610c35565b60405180910390f35b61016960048036038101906101649190610922565b610538565b604051610176919061096a565b60405180910390f35b610199600480360381019061019491906109bb565b610558565b6040516101a69190610c5f565b60405180910390f35b6101c960048036038101906101c491906109bb565b6105e7565b6040516101d69190610c5f565b60405180910390f35b6101f960048036038101906101f49190610bec565b610626565b005b60036020528060005260406000206000915054906101000a900460ff1681565b6001818154811061022b57600080fd5b906000526020600020906002020160009150905080600001805461024e90610ca9565b80601f016020809104026020016040519081016040528092919081815260200182805461027a90610ca9565b80156102c75780601f1061029c576101008083540402835291602001916102c7565b820191906000526020600020905b8154815290600101906020018083116102aa57829003601f168201915b5050505050908060010154905082565b600260008273ffffffffffffffffffffffffffffffffffffffff1673ffffffffffffffffffffffffffffffffffffffff16815260200190815260200160002060009054906101000a900460ff1615610364576040517f08c379a000000000000000000000000000000000000000000000000000000000815260040161035b90610d26565b60405180910390fd5b6001600260008373ffffffffffffffffffffffffffffffffffffffff1673ffffffffffffffffffffffffffffffffffffffff16815260200190815260200160002060006101000a81548160ff0219169083151502179055506004819080600181540180825580915050600190039060005260206000200160009091909190916101000a81548173ffffffffffffffffffffffffffffffffffffffff021916908373ffffffffffffffffffffffffffffffffffffffff16021790555050565b6000816040516104329190610d82565b908152602001604051809103902060009054906101000a900460ff161561048e576040517f08c379a000000000000000000000000000000000000000000000000000000000815260040161048590610de5565b60405180910390fd5b600160405180604001604052808381526020016000815250908060018154018082558091505060019003906000526020600020906002020160009091909190915060008201518160000190816104e49190610fb1565b5060208201518160010155505060016000826040516105039190610d82565b908152602001604051809103902060006101000a81548160ff02191690831515021790555050565b6000600480549050905090565b60026020528060005260406000206000915054906101000a900460ff1681565b600060048054905082106105a1576040517f08c379a0000000000000000000000000000000000000000000000000000000008152600401610598906110cf565b60405180910390fd5b600482815481106105b5576105b46110ef565b5b9060005260206000200160009054906101000a900473ffffffffffffffffffffffffffffffffffffffff169050919050565b600481815481106105f757600080fd5b906000526020600020016000915054906101000a900473ffffffffffffffffffffffffffffffffffffffff1681565b600260003373ffffffffffffffffffffffffffffffffffffffff1673ffffffffffffffffffffffffffffffffffffffff16815260200190815260200160002060009054906101000a900460ff166106b2576040517f08c379a00000000000000000000000000000000000000000000000000000000081526004016106a99061116a565b60405180910390fd5b600360003373ffffffffffffffffffffffffffffffffffffffff1673ffffffffffffffffffffffffffffffffffffffff16815260200190815260200160002060009054906101000a900460ff161561073f576040517f08c379a0000000000000000000000000000000000000000000000000000000008152600401610736906111d6565b60405180910390fd5b60008160405161074f9190610d82565b908152602001604051809103902060009054906101000a900460ff166107aa576040517f08c379a00000000000000000000000000000000000000000000000000000000081526004016107a190611242565b60405180910390fd5b60005b6001805490508110156108ac578180519060200120600182815481106107d6576107d56110ef565b5b90600052602060002090600202016000016040516107f49190611305565b6040518091039020036108995760018181548110610815576108146110ef565b5b906000526020600020906002020160010160008154809291906108379061134b565b91905055506001600360003373ffffffffffffffffffffffffffffffffffffffff1673ffffffffffffffffffffffffffffffffffffffff16815260200190815260200160002060006101000a81548160ff0219169083151502179055506108ac565b80806108a49061134b565b9150506107ad565b5050565b6000604051905090565b600080fd5b600080fd5b600073ffffffffffffffffffffffffffffffffffffffff82169050919050565b60006108ef826108c4565b9050919050565b6108ff816108e4565b811461090a57600080fd5b50565b60008135905061091c816108f6565b92915050565b600060208284031215610938576109376108ba565b5b60006109468482850161090d565b91505092915050565b60008115159050919050565b6109648161094f565b82525050565b600060208201905061097f600083018461095b565b92915050565b6000819050919050565b61099881610985565b81146109a357600080fd5b50565b6000813590506109b58161098f565b92915050565b6000602082840312156109d1576109d06108ba565b5b60006109df848285016109a6565b91505092915050565b600081519050919050565b600082825260208201905092915050565b60005b83811015610a22578082015181840152602081019050610a07565b60008484015250505050565b6000601f19601f8301169050919050565b6000610a4a826109e8565b610a5481856109f3565b9350610a64818560208601610a04565b610a6d81610a2e565b840191505092915050565b610a8181610985565b82525050565b60006040820190508181036000830152610aa18185610a3f565b9050610ab06020830184610a78565b9392505050565b600080fd5b600080fd5b7f4e487b7100000000000000000000000000000000000000000000000000000000600052604160045260246000fd5b610af982610a2e565b810181811067ffffffffffffffff82111715610b1857610b17610ac1565b5b80604052505050565b6000610b2b6108b0565b9050610b378282610af0565b919050565b600067ffffffffffffffff821115610b5757610b56610ac1565b5b610b6082610a2e565b9050602081019050919050565b82818337600083830152505050565b6000610b8f610b8a84610b3c565b610b21565b905082815260208101848484011115610bab57610baa610abc565b5b610bb6848285610b6d565b509392505050565b600082601f830112610bd357610bd2610ab7565b5b8135610be3848260208601610b7c565b91505092915050565b600060208284031215610c0257610c016108ba565b5b600082013567ffffffffffffffff811115610c2057610c1f6108bf565b5b610c2c84828501610bbe565b91505092915050565b6000602082019050610c4a6000830184610a78565b92915050565b610c59816108e4565b82525050565b6000602082019050610c746000830184610c50565b92915050565b7f4e487b7100000000000000000000000000000000000000000000000000000000600052602260045260246000fd5b60006002820490506001821680610cc157607f821691505b602082108103610cd457610cd3610c7a565b5b50919050565b7f566f74657220697320616c726561647920726567697374657265642e00000000600082015250565b6000610d10601c836109f3565b9150610d1b82610cda565b602082019050919050565b60006020820190508181036000830152610d3f81610d03565b9050919050565b600081905092915050565b6000610d5c826109e8565b610d668185610d46565b9350610d76818560208601610a04565b80840191505092915050565b6000610d8e8284610d51565b915081905092915050565b7f43616e64696461746520616c7265616479206578697374732e00000000000000600082015250565b6000610dcf6019836109f3565b9150610dda82610d99565b602082019050919050565b60006020820190508181036000830152610dfe81610dc2565b9050919050565b60008190508160005260206000209050919050565b60006020601f8301049050919050565b600082821b905092915050565b600060088302610e677fffffffffffffffffffffffffffffffffffffffffffffffffffffffffffffffff82610e2a565b610e718683610e2a565b95508019841693508086168417925050509392505050565b6000819050919050565b6000610eae610ea9610ea484610985565b610e89565b610985565b9050919050565b6000819050919050565b610ec883610e93565b610edc610ed482610eb5565b848454610e37565b825550505050565b600090565b610ef1610ee4565b610efc818484610ebf565b505050565b5b81811015610f2057610f15600082610ee9565b600181019050610f02565b5050565b601f821115610f6557610f3681610e05565b610f3f84610e1a565b81016020851015610f4e578190505b610f62610f5a85610e1a565b830182610f01565b50505b505050565b600082821c905092915050565b6000610f8860001984600802610f6a565b1980831691505092915050565b6000610fa18383610f77565b9150826002028217905092915050565b610fba826109e8565b67ffffffffffffffff811115610fd357610fd2610ac1565b5b610fdd8254610ca9565b610fe8828285610f24565b600060209050601f83116001811461101b5760008415611009578287015190505b6110138582610f95565b86555061107b565b601f19841661102986610e05565b60005b828110156110515784890151825560018201915060208501945060208101905061102c565b8683101561106e578489015161106a601f891682610f77565b8355505b6001600288020188555050505b505050505050565b7f496e646578206f7574206f6620626f756e64732e000000000000000000000000600082015250565b60006110b96014836109f3565b91506110c482611083565b602082019050919050565b600060208201905081810360008301526110e8816110ac565b9050919050565b7f4e487b7100000000000000000000000000000000000000000000000000000000600052603260045260246000fd5b7f596f7520617265206e6f742061207265676973746572656420766f7465722e00600082015250565b6000611154601f836109f3565b915061115f8261111e565b602082019050919050565b6000602082019050818103600083015261118381611147565b9050919050565b7f596f75206861766520616c726561647920766f7465642e000000000000000000600082015250565b60006111c06017836109f3565b91506111cb8261118a565b602082019050919050565b600060208201905081810360008301526111ef816111b3565b9050919050565b7f43616e64696461746520646f6573206e6f742065786973742e00000000000000600082015250565b600061122c6019836109f3565b9150611237826111f6565b602082019050919050565b6000602082019050818103600083015261125b8161121f565b9050919050565b600081905092915050565b60008190508160005260206000209050919050565b6000815461128f81610ca9565b6112998186611262565b945060018216600081146112b457600181146112c9576112fc565b60ff19831686528115158202860193506112fc565b6112d28561126d565b60005b838110156112f4578154818901526001820191506020810190506112d5565b838801955050505b50505092915050565b60006113118284611282565b915081905092915050565b7f4e487b7100000000000000000000000000000000000000000000000000000000600052601160045260246000fd5b600061135682610985565b91507fffffffffffffffffffffffffffffffffffffffffffffffffffffffffffffffff82036113885761138761131c565b5b60018201905091905056fea26469706673582212207c59600ee29ea0b87b7c7b0ba6fdad2ab408e4a4682f910a8ead1b9b59a853a664736f6c63430008130033",
  "immutableReferences": {},
  "source": "// SPDX-License-Identifier: MIT\r\npragma solidity ^0.8.19;\r\n\r\ncontract Voting {\r\n    struct Candidate {\r\n        string name;\r\n        uint voteCount;\r\n    }\r\n\r\n    mapping(string => bool) private candidateExists;\r\n    Candidate[] public candidates;\r\n    \r\n    mapping(address => bool) public registeredVoters;  // Who can vote\r\n    mapping(address => bool) public hasVoted;  // Who has already voted\r\n    address[] public voters;  // Store all voter addresses\r\n\r\n    function addCandidate(string memory _name) public {\r\n        require(!candidateExists[_name], \"Candidate already exists.\");\r\n        candidates.push(Candidate(_name, 0));\r\n        candidateExists[_name] = true;\r\n    }\r\n\r\n    function registerVoter(address _voter) public {\r\n        require(!registeredVoters[_voter], \"Voter is already registered.\");\r\n        registeredVoters[_voter] = true;\r\n        voters.push(_voter);\r\n    }\r\n\r\n    function vote(string memory _name) public {\r\n        require(registeredVoters[msg.sender], \"You are not a registered voter.\");\r\n        require(!hasVoted[msg.sender], \"You have already voted.\");\r\n        require(candidateExists[_name], \"Candidate does not exist.\");\r\n\r\n        for (uint i = 0; i < candidates.length; i++) {\r\n            if (keccak256(bytes(candidates[i].name)) == keccak256(bytes(_name))) {\r\n                candidates[i].voteCount++;\r\n                hasVoted[msg.sender] = true;\r\n                break;\r\n            }\r\n        }\r\n    }\r\n\r\n    function getVoter(uint index) public view returns (address) {\r\n        require(index < voters.length, \"Index out of bounds.\");\r\n        return voters[index];\r\n    }\r\n\r\n    function getTotalVoters() public view returns (uint) {\r\n        return voters.length;\r\n    }\r\n}\r\n",
  "sourcePath": "C:\\Users\\KIM\\Desktop\\Project\\Dapp-Voting-system\\contracts\\voting.sol",
  "compiler": {
    "name": "solc",
    "version": "0.8.19+commit.7dd6d404.Emscripten.clang"
  },
  "schemaVersion": "3.4.16",
  "updatedAt": "2025-03-16T17:35:13.717Z",
  "networkType": "ethereum",
  "devdoc": {
    "kind": "dev",
    "methods": {},
    "version": 1
  },
  "userdoc": {
    "kind": "user",
    "methods": {},
    "version": 1
  }
}